{"abi":[{"type":"constructor","inputs":[{"name":"_usdc","type":"address","internalType":"address"},{"name":"_oracle","type":"address","internalType":"address"},{"name":"_safePool","type":"address","internalType":"address"},{"name":"_yieldPool","type":"address","internalType":"address"}],"stateMutability":"nonpayable"},{"type":"function","name":"MODE_DEFENSIVE","inputs":[],"outputs":[{"name":"","type":"uint256","internalType":"uint256"}],"stateMutability":"view"},{"type":"function","name":"MODE_EMERGENCY","inputs":[],"outputs":[{"name":"","type":"uint256","internalType":"uint256"}],"stateMutability":"view"},{"type":"function","name":"MODE_FARMING","inputs":[],"outputs":[{"name":"","type":"uint256","internalType":"uint256"}],"stateMutability":"view"},{"type":"function","name":"PRICE_THRESHOLD","inputs":[],"outputs":[{"name":"","type":"uint256","internalType":"uint256"}],"stateMutability":"view"},{"type":"function","name":"currentMode","inputs":[],"outputs":[{"name":"","type":"uint256","internalType":"uint256"}],"stateMutability":"view"},{"type":"function","name":"deposit","inputs":[{"name":"amount","type":"uint256","internalType":"uint256"}],"outputs":[],"stateMutability":"nonpayable"},{"type":"function","name":"getBalance","inputs":[{"name":"user","type":"address","internalType":"address"}],"outputs":[{"name":"","type":"uint256","internalType":"uint256"}],"stateMutability":"view"},{"type":"function","name":"getMode","inputs":[],"outputs":[{"name":"","type":"uint256","internalType":"uint256"}],"stateMutability":"view"},{"type":"function","name":"oracle","inputs":[],"outputs":[{"name":"","type":"address","internalType":"contract OracleFeed"}],"stateMutability":"view"},{"type":"function","name":"rebalance","inputs":[],"outputs":[],"stateMutability":"nonpayable"},{"type":"function","name":"safePool","inputs":[],"outputs":[{"name":"","type":"address","internalType":"contract SafePool"}],"stateMutability":"view"},{"type":"function","name":"simulateRisk","inputs":[{"name":"newPrice","type":"uint256","internalType":"uint256"}],"outputs":[{"name":"","type":"bool","internalType":"bool"}],"stateMutability":"view"},{"type":"function","name":"totalDeposits","inputs":[],"outputs":[{"name":"","type":"uint256","internalType":"uint256"}],"stateMutability":"view"},{"type":"function","name":"usdc","inputs":[],"outputs":[{"name":"","type":"address","internalType":"contract IERC20"}],"stateMutability":"view"},{"type":"function","name":"userDeposits","inputs":[{"name":"","type":"address","internalType":"address"}],"outputs":[{"name":"","type":"uint256","internalType":"uint256"}],"stateMutability":"view"},{"type":"function","name":"withdraw","inputs":[{"name":"amount","type":"uint256","internalType":"uint256"}],"outputs":[],"stateMutability":"nonpayable"},{"type":"function","name":"yieldPool","inputs":[],"outputs":[{"name":"","type":"address","internalType":"contract YieldPool"}],"stateMutability":"view"},{"type":"event","name":"Deposited","inputs":[{"name":"user","type":"address","indexed":true,"internalType":"address"},{"name":"amount","type":"uint256","indexed":false,"internalType":"uint256"}],"anonymous":false},{"type":"event","name":"ModeChanged","inputs":[{"name":"newMode","type":"uint256","indexed":false,"internalType":"uint256"},{"name":"price","type":"uint256","indexed":false,"internalType":"uint256"},{"name":"timestamp","type":"uint256","indexed":false,"internalType":"uint256"},{"name":"reason","type":"string","indexed":false,"internalType":"string"}],"anonymous":false},{"type":"event","name":"Rebalanced","inputs":[{"name":"mode","type":"uint256","indexed":false,"internalType":"uint256"},{"name":"amount","type":"uint256","indexed":false,"internalType":"uint256"}],"anonymous":false},{"type":"event","name":"Withdrawn","inputs":[{"name":"user","type":"address","indexed":true,"internalType":"address"},{"name":"amount","type":"uint256","indexed":false,"internalType":"uint256"}],"anonymous":false}],"bytecode":{"object":"0x610100604052348015610010575f5ffd5b50604051611a67380380611a6783398101604081905261002f91610309565b6001600160a01b0384166100965760405162461bcd60e51b815260206004820152602360248201527f53656e74696e656c5661756c743a20496e76616c69642055534443206164647260448201526265737360e81b60648201526084015b60405180910390fd5b6001600160a01b0383166100fa5760405162461bcd60e51b815260206004820152602560248201527f53656e74696e656c5661756c743a20496e76616c6964204f7261636c65206164604482015264647265737360d81b606482015260840161008d565b6001600160a01b0382166101605760405162461bcd60e51b815260206004820152602760248201527f53656e74696e656c5661756c743a20496e76616c69642053616665506f6f6c206044820152666164647265737360c81b606482015260840161008d565b6001600160a01b0381166101c75760405162461bcd60e51b815260206004820152602860248201527f53656e74696e656c5661756c743a20496e76616c6964205969656c64506f6f6c604482015267206164647265737360c01b606482015260840161008d565b6001600160a01b0380851660805283811660a081905283821660c05290821660e05260408051634c6afee560e11b815290515f92916398d5fdca9160048083019260209291908290030181865afa158015610224573d5f5f3e3d5ffd5b505050506040513d601f19601f82011682018060405250810190610248919061035a565b90506102905f826040518060400160405280601b81526020017f4641524d494e473a20696e697469616c206465706c6f796d656e74000000000081525061029a60201b60201c565b50505050506103bb565b5f5483036102a757505050565b5f8390556040517f7ece719a480bd2bf712a3af1683c7148a9f3b6da26cc8d399ac7f0c11fa9f244906102e1908590859042908690610371565b60405180910390a1505050565b80516001600160a01b0381168114610304575f5ffd5b919050565b5f5f5f5f6080858703121561031c575f5ffd5b610325856102ee565b9350610333602086016102ee565b9250610341604086016102ee565b915061034f606086016102ee565b905092959194509250565b5f6020828403121561036a575f5ffd5b5051919050565b848152836020820152826040820152608060608201525f8251806080840152806020850160a085015e5f60a0828501015260a0601f19601f83011684010191505095945050505050565b60805160a05160c05160e0516115bc6104ab5f395f818161024c01528181610387015281816104990152818161056901528181610b0601528181610df901528181610ec4015281816110c8015261119301525f818161022501528181610687015281816107980152818161086801528181610ba401528181610c6f01528181610d5b0152818161121701526112e201525f81816101f60152610a6d01525f818161015d015281816104cb015281816105e7015281816107ca015281816108b6015281816109a301528181610bd301528181610e2801528181610fe2015281816110f7015261124601526115bc5ff3fe608060405234801561000f575f5ffd5b5060043610610106575f3560e01c80637d7c2a1c1161009e57806384db6d291161006e57806384db6d29146102205780638f188dd41461024757806398d20c111461026e578063b6b55f2514610276578063f8b2cb4f14610289575f5ffd5b80637d7c2a1c146101e05780637d882097146101e85780637dc0d1d0146101f15780638125092f14610218575f5ffd5b80634b4fd03b116100d95780634b4fd03b14610197578063513b55f81461019e5780635c6cff88146101c95780635ed4c4dd146101d1575f5ffd5b80630ba36dcd1461010a578063252191371461013c5780632e1a7d4d146101435780633e413bee14610158575b5f5ffd5b6101296101183660046113c8565b60016020525f908152604090205481565b6040519081526020015b60405180910390f35b6101295f81565b6101566101513660046113f5565b6102b1565b005b61017f7f000000000000000000000000000000000000000000000000000000000000000081565b6040516001600160a01b039091168152602001610133565b5f54610129565b6101b96101ac3660046113f5565b670ddd2935029d80001190565b6040519015158152602001610133565b610129600281565b610129670ddd2935029d800081565b610156610a6a565b61012960025481565b61017f7f000000000000000000000000000000000000000000000000000000000000000081565b6101295f5481565b61017f7f000000000000000000000000000000000000000000000000000000000000000081565b61017f7f000000000000000000000000000000000000000000000000000000000000000081565b610129600181565b6101566102843660046113f5565b610fa1565b6101296102973660046113c8565b6001600160a01b03165f9081526001602052604090205490565b5f81116102d95760405162461bcd60e51b81526004016102d09061140c565b60405180910390fd5b335f908152600160205260409020548111156103435760405162461bcd60e51b815260206004820152602360248201527f53656e74696e656c5661756c743a20496e73756666696369656e742062616c616044820152626e636560e81b60648201526084016102d0565b335f908152600160205260408120805483929061036190849061146c565b925050819055508060025f828254610379919061146c565b90915550505f5461067b575f7f00000000000000000000000000000000000000000000000000000000000000006001600160a01b031663853828b66040518163ffffffff1660e01b81526004016020604051808303815f875af11580156103e2573d5f5f3e3d5ffd5b505050506040513d601f19601f820116820180604052508101906104069190611485565b90508181101561046f5760405162461bcd60e51b815260206004820152602e60248201527f53656e74696e656c5661756c743a20496e73756666696369656e742066756e6460448201526d1cc81a5b88165a595b19141bdbdb60921b60648201526084016102d0565b818111156105cb575f610482838361146c565b60405163095ea7b360e01b81526001600160a01b037f000000000000000000000000000000000000000000000000000000000000000081166004830152602482018390529192507f00000000000000000000000000000000000000000000000000000000000000009091169063095ea7b3906044016020604051808303815f875af1158015610513573d5f5f3e3d5ffd5b505050506040513d601f19601f82011682018060405250810190610537919061149c565b6105535760405162461bcd60e51b81526004016102d0906114bb565b60405163b6b55f2560e01b8152600481018290527f00000000000000000000000000000000000000000000000000000000000000006001600160a01b03169063b6b55f25906024015b5f604051808303815f87803b1580156105b3575f5ffd5b505af11580156105c5573d5f5f3e3d5ffd5b50505050505b60405163a9059cbb60e01b8152336004820152602481018390527f00000000000000000000000000000000000000000000000000000000000000006001600160a01b03169063a9059cbb906044016020604051808303815f875af1158015610635573d5f5f3e3d5ffd5b505050506040513d601f19601f82011682018060405250810190610659919061149c565b6106755760405162461bcd60e51b81526004016102d0906114f2565b50610a31565b60015f540361089f575f7f00000000000000000000000000000000000000000000000000000000000000006001600160a01b031663853828b66040518163ffffffff1660e01b81526004016020604051808303815f875af11580156106e2573d5f5f3e3d5ffd5b505050506040513d601f19601f820116820180604052508101906107069190611485565b90508181101561076e5760405162461bcd60e51b815260206004820152602d60248201527f53656e74696e656c5661756c743a20496e73756666696369656e742066756e6460448201526c1cc81a5b8814d85999541bdbdb609a1b60648201526084016102d0565b818111156105cb575f610781838361146c565b60405163095ea7b360e01b81526001600160a01b037f000000000000000000000000000000000000000000000000000000000000000081166004830152602482018390529192507f00000000000000000000000000000000000000000000000000000000000000009091169063095ea7b3906044016020604051808303815f875af1158015610812573d5f5f3e3d5ffd5b505050506040513d601f19601f82011682018060405250810190610836919061149c565b6108525760405162461bcd60e51b81526004016102d0906114bb565b60405163b6b55f2560e01b8152600481018290527f00000000000000000000000000000000000000000000000000000000000000006001600160a01b03169063b6b55f259060240161059c565b6040516370a0823160e01b815230600482015281907f00000000000000000000000000000000000000000000000000000000000000006001600160a01b0316906370a0823190602401602060405180830381865afa158015610903573d5f5f3e3d5ffd5b505050506040513d601f19601f820116820180604052508101906109279190611485565b10156109875760405162461bcd60e51b815260206004820152602960248201527f53656e74696e656c5661756c743a20496e73756666696369656e74207661756c604482015268742062616c616e636560b81b60648201526084016102d0565b60405163a9059cbb60e01b8152336004820152602481018290527f00000000000000000000000000000000000000000000000000000000000000006001600160a01b03169063a9059cbb906044016020604051808303815f875af11580156109f1573d5f5f3e3d5ffd5b505050506040513d601f19601f82011682018060405250810190610a15919061149c565b610a315760405162461bcd60e51b81526004016102d0906114f2565b60405181815233907f7084f5476618d8e60b11ef0d7d3f06914655adb8793e28ff7f018d4c76d505d5906020015b60405180910390a250565b5f7f00000000000000000000000000000000000000000000000000000000000000006001600160a01b03166398d5fdca6040518163ffffffff1660e01b8152600401602060405180830381865afa158015610ac7573d5f5f3e3d5ffd5b505050506040513d601f19601f82011682018060405250810190610aeb9190611485565b9050670ddd2935029d8000811015610d4f575f54610d4c575f7f00000000000000000000000000000000000000000000000000000000000000006001600160a01b031663853828b66040518163ffffffff1660e01b81526004016020604051808303815f875af1158015610b61573d5f5f3e3d5ffd5b505050506040513d601f19601f82011682018060405250810190610b859190611485565b90508015610ccf5760405163095ea7b360e01b81526001600160a01b037f000000000000000000000000000000000000000000000000000000000000000081166004830152602482018390527f0000000000000000000000000000000000000000000000000000000000000000169063095ea7b3906044016020604051808303815f875af1158015610c19573d5f5f3e3d5ffd5b505050506040513d601f19601f82011682018060405250810190610c3d919061149c565b610c595760405162461bcd60e51b81526004016102d0906114bb565b60405163b6b55f2560e01b8152600481018290527f00000000000000000000000000000000000000000000000000000000000000006001600160a01b03169063b6b55f25906024015f604051808303815f87803b158015610cb8575f5ffd5b505af1158015610cca573d5f5f3e3d5ffd5b505050505b610d106001836040518060400160405280601881526020017f444546454e534956453a207269736b2064657465637465640000000000000000815250611374565b6040805160018152602081018390527fc257294ad49c215e1a248c91a86bc2612b4781d9677285cc9c14498f485ef122910160405180910390a1505b50565b60015f5403610d4c575f7f00000000000000000000000000000000000000000000000000000000000000006001600160a01b031663853828b66040518163ffffffff1660e01b81526004016020604051808303815f875af1158015610db6573d5f5f3e3d5ffd5b505050506040513d601f19601f82011682018060405250810190610dda9190611485565b90508015610f245760405163095ea7b360e01b81526001600160a01b037f000000000000000000000000000000000000000000000000000000000000000081166004830152602482018390527f0000000000000000000000000000000000000000000000000000000000000000169063095ea7b3906044016020604051808303815f875af1158015610e6e573d5f5f3e3d5ffd5b505050506040513d601f19601f82011682018060405250810190610e92919061149c565b610eae5760405162461bcd60e51b81526004016102d0906114bb565b60405163b6b55f2560e01b8152600481018290527f00000000000000000000000000000000000000000000000000000000000000006001600160a01b03169063b6b55f25906024015f604051808303815f87803b158015610f0d575f5ffd5b505af1158015610f1f573d5f5f3e3d5ffd5b505050505b610f645f836040518060400160405280601a81526020017f4641524d494e473a206e6f726d616c20636f6e646974696f6e73000000000000815250611374565b604080515f8152602081018390527fc257294ad49c215e1a248c91a86bc2612b4781d9677285cc9c14498f485ef122910160405180910390a15050565b5f8111610fc05760405162461bcd60e51b81526004016102d09061140c565b6040516323b872dd60e01b8152336004820152306024820152604481018290527f00000000000000000000000000000000000000000000000000000000000000006001600160a01b0316906323b872dd906064016020604051808303815f875af1158015611030573d5f5f3e3d5ffd5b505050506040513d601f19601f82011682018060405250810190611054919061149c565b6110705760405162461bcd60e51b81526004016102d0906114f2565b335f908152600160205260408120805483929061108e908490611529565b925050819055508060025f8282546110a69190611529565b90915550505f546111f75760405163095ea7b360e01b81526001600160a01b037f000000000000000000000000000000000000000000000000000000000000000081166004830152602482018390527f0000000000000000000000000000000000000000000000000000000000000000169063095ea7b3906044016020604051808303815f875af115801561113d573d5f5f3e3d5ffd5b505050506040513d601f19601f82011682018060405250810190611161919061149c565b61117d5760405162461bcd60e51b81526004016102d0906114bb565b60405163b6b55f2560e01b8152600481018290527f00000000000000000000000000000000000000000000000000000000000000006001600160a01b03169063b6b55f25906024015f604051808303815f87803b1580156111dc575f5ffd5b505af11580156111ee573d5f5f3e3d5ffd5b50505050611342565b60015f54036113425760405163095ea7b360e01b81526001600160a01b037f000000000000000000000000000000000000000000000000000000000000000081166004830152602482018390527f0000000000000000000000000000000000000000000000000000000000000000169063095ea7b3906044016020604051808303815f875af115801561128c573d5f5f3e3d5ffd5b505050506040513d601f19601f820116820180604052508101906112b0919061149c565b6112cc5760405162461bcd60e51b81526004016102d0906114bb565b60405163b6b55f2560e01b8152600481018290527f00000000000000000000000000000000000000000000000000000000000000006001600160a01b03169063b6b55f25906024015f604051808303815f87803b15801561132b575f5ffd5b505af115801561133d573d5f5f3e3d5ffd5b505050505b60405181815233907f2da466a7b24304f47e87fa2e1e5a81b9831ce54fec19055ce277ca2f39ba42c490602001610a5f565b5f54830361138157505050565b5f8390556040517f7ece719a480bd2bf712a3af1683c7148a9f3b6da26cc8d399ac7f0c11fa9f244906113bb90859085904290869061153c565b60405180910390a1505050565b5f602082840312156113d8575f5ffd5b81356001600160a01b03811681146113ee575f5ffd5b9392505050565b5f60208284031215611405575f5ffd5b5035919050565b6020808252602c908201527f53656e74696e656c5661756c743a20416d6f756e74206d75737420626520677260408201526b06561746572207468616e20360a41b606082015260800190565b634e487b7160e01b5f52601160045260245ffd5b8181038181111561147f5761147f611458565b92915050565b5f60208284031215611495575f5ffd5b5051919050565b5f602082840312156114ac575f5ffd5b815180151581146113ee575f5ffd5b6020808252601e908201527f53656e74696e656c5661756c743a20417070726f76616c206661696c65640000604082015260600190565b6020808252601e908201527f53656e74696e656c5661756c743a205472616e73666572206661696c65640000604082015260600190565b8082018082111561147f5761147f611458565b848152836020820152826040820152608060608201525f8251806080840152806020850160a085015e5f60a0828501015260a0601f19601f8301168401019150509594505050505056fea2646970667358221220eb57a1141d1d1414ae5b8572251327a683ef329f984d72d992734c452175291c64736f6c634300081e0033","linkReferences":{}},"methodIdentifiers":{"MODE_DEFENSIVE()":"98d20c11","MODE_EMERGENCY()":"5c6cff88","MODE_FARMING()":"25219137","PRICE_THRESHOLD()":"5ed4c4dd","currentMode()":"8125092f","deposit(uint256)":"b6b55f25","getBalance(address)":"f8b2cb4f","getMode()":"4b4fd03b","oracle()":"7dc0d1d0","rebalance()":"7d7c2a1c","safePool()":"84db6d29","simulateRisk(uint256)":"513b55f8","totalDeposits()":"7d882097","usdc()":"3e413bee","userDeposits(address)":"0ba36dcd","withdraw(uint256)":"2e1a7d4d","yieldPool()":"8f188dd4"},"id":20}